S01000006C6162732D6176722E73726563FC
S11300000C9434000C94A5000C9446000C94460007
S11300100C9446000C9446000C9446000C94460044
S11300200C9446000C9446000C9446000C94460034
S11300300C9446000C9446000C9446000C94460024
S11300400C9446000C9448000C9446000C94460012
S11300500C9446000C9446000C9446000C94460004
S11300600C9446000C94460011241FBECFEFD8E038
S1130070DEBFCDBF21E0A0E0B1E001C01D92A830F9
S1130080B207E1F70E9481000C94CB000C940000AD
S11300901F920F920FB60F9211248F93EF93FF9339
S11300A0E0910101E43018F4E13020F006C0E430BE
S11300B051F016C08EB580930001F0E0ED5FFE4F65
S11300C080818EBD0DC085B1846085B986E08A9536
S11300D0F1F7000085B18B7F85B9809102018EBD57
S11300E0809101018F5F80930101853010F010929F
S11300F00101FF91EF918F910F900FBE0F901F9010
S113010018958CE08BB98FEF85B984B98DB3816074
S11301108DBBE9E6F0E0808181608083789490E093
S113012080910701813031F4992321F0915010928C
S1130130070107C0823029F49F3F19F09F5F109296
S11301400701892F809585B9EBCF1F920F920FB6C7
S11301500F9211248F939F9389B190E0809590958D
S1130160959587959595879583709FEF980F923015
S113017020F482E08093070107C0882311F08330C4
S113018019F481E0809307019F918F910F900FBE26
S10D01900F901F901895F894FFCF0C
S9030000FC
