S01000006C6162732D6176722E73726563FC
S11300000C9434000C9446000C9446000C94460066
S11300100C9446000C9446000C9446000C94460044
S11300200C9446000C9446000C9446000C94460034
S11300300C9446000C9446000C9446000C94460024
S11300400C9446000C9448000C9446000C94460012
S11300500C9446000C9446000C9446000C94460004
S11300600C9446000C94460011241FBECFEFD8E038
S1130070DEBFCDBF21E0A0E0B1E001C01D92A730FA
S1130080B207E1F70E9481000C949D000C940000DB
S11300901F920F920FB60F9211248F93EF93FF9339
S11300A0E0910101E43018F4E13020F006C0E430BE
S11300B051F016C08EB580930001F0E0ED5FFE4F65
S11300C080818EBD0DC085B1846085B986E08A9536
S11300D0F1F7000085B18B7F85B9809102018EBD57
S11300E0809101018F5F80930101853010F010929F
S11300F00101FF91EF918F910F900FBE0F901F9010
S113010018958AB18FEF8AB92FEF8FE39BE02150C6
S113011080409040E1F700C000008BB181608BB952
S11301202FEF8FE39BE0215080409040E1F700C027
S111013000008BB18E7F8BB9E7CFF894FFCF20
S9030000FC
